:100000000C9434000C9451000C947F020C94510019
:100010000C9451000C9451000C9451000C94D1029A
:100020000C9451000C9451000C9451000C9451000C
:100030000C9451000C9451000C9451000C945100FC
:100040000C9451000C9451000C94AA020C94510091
:100050000C9451000C9451000C9451000C945100DC
:100060000C9451000C94510011241FBECFEFD8E026
:10007000DEBFCDBF11E0A0E0B1E0E8E7F7E002C0ED
:1000800005900D92A630B107D9F721E0A6E0B1E0C6
:1000900001C01D92A433B207E1F70E9450030C94F3
:1000A000BA030C94000020910A019091090181E0AB
:1000B000291301C080E008954FB7F89491E080E0E3
:1000C00015C030910A012091090190E0321771F0BA
:1000D000E0910901F0E0EC5EFE4F80812091090182
:1000E00030E02F5F3F4F2F71209309019111E9CF2D
:1000F0004FBF08958BB18F788BB908950E947A0015
:1001000080910D01882321F08BB180628BB9089515
:1001100080911301811104C08BB180618BB9089566
:1001200080911301813021F48BB180648BB90895E3
:100130008BB180628BB90895882321F088B18860E3
:1001400088B9089588B1877F88B90895882321F0F8
:100150008BB180688BB908958BB18F778BB9089577
:10016000882321F085B1816085B9089585B18E7F9E
:1001700085B908958AB1806F8AB984B1836084B9E2
:1001800087B1886087B98AB1877F8AB98BB1886067
:100190008BB987B1887F87B988B1876088B90E9499
:1001A0007A0080E00E949C0080E00E94A60080E02F
:1001B0000E94B0000895853608F084E6282F30E0CC
:1001C000AFEFB0E00E94AB0324E630E040E050E047
:1001D0000E9489033093890020938800089581E864
:1001E000809380008BE08093810082E30E94DB009B
:1001F000089582E08093B00097E09093B1009BE96E
:100200009093B300809370000895E9E6F0E0808158
:100210008860808380818B7F80838DB382608DBB7B
:1002200008951092C50087E68093C4001092C00024
:1002300080E98093C10086E08093C2000895109207
:10024000B90088E48093B80084E08093BC000895EE
:1002500080E69AEE02C0019731F02091BC00222383
:10026000D4F781E0089580E0089584EA8093BC008B
:100270000E942801882321F08091B900887F089589
:100280008FEF08958093BB0084E88093BC000E94A8
:100290002801882321F08091B900887F08958FEF8D
:1002A000089584E98093BC000895CF93DF93C82F0D
:1002B000D62F0E943501883031F0803121F00E9424
:1002C000510180E016C08C2F880F0E9442018831B6
:1002D00021F00E94510180E00CC08D2F0E9442014C
:1002E000883221F00E94510180E003C00E94510138
:1002F00081E0DF91CF910895811115C081E0809355
:100300000C010E94A60080E50E94DB0088EC90E0D2
:10031000909303018093020184EF91E09093010197
:100320008093000108958230A9F410920C0180E0BE
:100330000E94A60084E10E94DB0088E790E0909391
:100340000301809302018AEF90E090930101809372
:100350000001089510920C0180E00E94A60082E343
:100360000E94DB0088E790E09093030180930201F4
:100370008CE291E090930101809300010895823016
:1003800039F484EF91E0909305018093040108957E
:10039000811107C08AEF90E09093050180930401DA
:1003A00008958CE291E090930501809304010895F3
:1003B000813041F480930D010E94B00080E50E94DD
:1003C000DB000CC010920D0180E00E94B000809113
:1003D0000C01811103C082E30E94DB000E947E00B9
:1003E000089581E080930E010E949C0084EF91E0CB
:1003F000909301018093000180911301811117C036
:100400008091110190911201805B9F4F2091040116
:10041000309105018217930750F480910401909167
:10042000050180559109909312018093110108955F
:10043000803121F4862F0E947C010895813121F4BE
:10044000862F0E94BF010895823129F4613041F462
:100450000E94F1010895833119F4862F0E94D8017A
:1004600008952BC00E945C0090910801911106C074
:10047000853A19F581E0809308011FC0913031F46D
:100480008093070182E08093080117C0923031F415
:100490008093060183E0809308010FC0209107013B
:1004A00060910601322F362795EA9327891303C0FE
:1004B000822F0E941802109208010E94530081119D
:1004C000D1CF08954B9909C081E080930E018093AC
:1004D0000B010E949C000E94F101309905C010920E
:1004E0000E0180E00E949C00319903C080E00E94D0
:1004F0007C01329903C081E00E94D80108951F92C7
:100500000F920FB60F9211242F933F934F935F9347
:100510006F937F938F939F93AF93BF93EF93FF93CB
:1005200081E080930E0180930B010E949C000E9449
:10053000F101FF91EF91BF91AF919F918F917F91C9
:100540006F915F914F913F912F910F900FBE0F9040
:100550001F9018951F920F920FB60F9211242F9390
:100560008F939F93EF93FF932091C60080910A0190
:1005700090E001968F7190910901891741F0E09107
:100580000A01F0E0EC5EFE4F208380930A01FF91A8
:10059000EF919F918F912F910F900FBE0F901F9011
:1005A00018951F920F920FB60F9211242F933F931D
:1005B0004F935F936F937F938F939F93AF93BF936B
:1005C000EF93FF9380910F0190911001019690930A
:1005D000100180930F0180910D01882319F00E9472
:1005E0007E004DC08091110190911201019690936F
:1005F00012018093110180911301811105C0209196
:100600000401309105010DC080911301813029F45E
:10061000209102013091030104C02091000130912A
:10062000010180911101909112018217930738F115
:10063000109212011092110180911301811104C0D6
:1006400081E08093130119C080911301813021F45E
:1006500082E08093130111C01092130180910E016A
:10066000882359F010920E0180E00E949C008CE2D9
:1006700091E090930101809300010E947E00FF9120
:10068000EF91BF91AF919F918F917F916F915F910A
:100690004F913F912F910F900FBE0F901F90189583
:1006A0000E94BA000E94EF000E94F9000E9405011A
:1006B0000E9411010E941F010E947E0078940E94F6
:1006C00062020E94310280910B01882331F0109266
:1006D0000B0161E282E10E9455014FB7F89481E07D
:1006E00090E00DC020910F013091100180E0243680
:1006F000310528F01092100110920F0191E0811144
:10070000F1CF4FBF9923D9F260E282E10E945501F7
:10071000D6CFA1E21A2EAA1BBB1BFD010DC0AA1F3A
:10072000BB1FEE1FFF1FA217B307E407F50720F05A
:10073000A21BB30BE40BF50B661F771F881F991FD5
:100740001A9469F760957095809590959B01AC011E
:10075000BD01CF010895A29FB001B39FC001A39F27
:10076000700D811D1124911DB29F700D811D1124EA
:08077000911D0895F894FFCFDC
:060778002C0178002C01A9
:00000001FF
